{
  "_format": "hh-sol-artifact-1",
  "contractName": "CitadelPool",
  "sourceName": "contracts/CitadelPool.sol",
  "abi": [
    {
      "inputs": [
        {
          "internalType": "address",
          "name": "token_",
          "type": "address"
        },
        {
          "internalType": "address",
          "name": "ctlToken_",
          "type": "address"
        },
        {
          "internalType": "uint256",
          "name": "apyTax_",
          "type": "uint256"
        },
        {
          "internalType": "uint256",
          "name": "premiumCoeff_",
          "type": "uint256"
        },
        {
          "internalType": "uint256",
          "name": "tokensPerBlock_",
          "type": "uint256"
        },
        {
          "internalType": "address",
          "name": "admin_",
          "type": "address"
        },
        {
          "internalType": "bool",
          "name": "enabled_",
          "type": "bool"
        }
      ],
      "stateMutability": "nonpayable",
      "type": "constructor"
    },
    {
      "anonymous": false,
      "inputs": [
        {
          "indexed": true,
          "internalType": "address",
          "name": "owner",
          "type": "address"
        },
        {
          "indexed": true,
          "internalType": "address",
          "name": "spender",
          "type": "address"
        },
        {
          "indexed": false,
          "internalType": "uint256",
          "name": "value",
          "type": "uint256"
        }
      ],
      "name": "Approval",
      "type": "event"
    },
    {
      "anonymous": false,
      "inputs": [
        {
          "indexed": false,
          "internalType": "uint256",
          "name": "date",
          "type": "uint256"
        },
        {
          "indexed": true,
          "internalType": "address",
          "name": "user",
          "type": "address"
        },
        {
          "indexed": false,
          "internalType": "uint256",
          "name": "amount",
          "type": "uint256"
        }
      ],
      "name": "Deposited",
      "type": "event"
    },
    {
      "anonymous": false,
      "inputs": [
        {
          "indexed": false,
          "internalType": "uint256",
          "name": "date",
          "type": "uint256"
        },
        {
          "indexed": true,
          "internalType": "address",
          "name": "user",
          "type": "address"
        },
        {
          "indexed": true,
          "internalType": "address",
          "name": "receiver",
          "type": "address"
        },
        {
          "indexed": false,
          "internalType": "uint256",
          "name": "amount",
          "type": "uint256"
        },
        {
          "indexed": false,
          "internalType": "uint256",
          "name": "premium",
          "type": "uint256"
        }
      ],
      "name": "FlashLoan",
      "type": "event"
    },
    {
      "anonymous": false,
      "inputs": [
        {
          "indexed": false,
          "internalType": "uint256",
          "name": "date",
          "type": "uint256"
        },
        {
          "indexed": true,
          "internalType": "address",
          "name": "user",
          "type": "address"
        },
        {
          "indexed": false,
          "internalType": "uint256",
          "name": "amount",
          "type": "uint256"
        }
      ],
      "name": "Rewarded",
      "type": "event"
    },
    {
      "anonymous": false,
      "inputs": [
        {
          "indexed": true,
          "internalType": "bytes32",
          "name": "role",
          "type": "bytes32"
        },
        {
          "indexed": true,
          "internalType": "bytes32",
          "name": "previousAdminRole",
          "type": "bytes32"
        },
        {
          "indexed": true,
          "internalType": "bytes32",
          "name": "newAdminRole",
          "type": "bytes32"
        }
      ],
      "name": "RoleAdminChanged",
      "type": "event"
    },
    {
      "anonymous": false,
      "inputs": [
        {
          "indexed": true,
          "internalType": "bytes32",
          "name": "role",
          "type": "bytes32"
        },
        {
          "indexed": true,
          "internalType": "address",
          "name": "account",
          "type": "address"
        },
        {
          "indexed": true,
          "internalType": "address",
          "name": "sender",
          "type": "address"
        }
      ],
      "name": "RoleGranted",
      "type": "event"
    },
    {
      "anonymous": false,
      "inputs": [
        {
          "indexed": true,
          "internalType": "bytes32",
          "name": "role",
          "type": "bytes32"
        },
        {
          "indexed": true,
          "internalType": "address",
          "name": "account",
          "type": "address"
        },
        {
          "indexed": true,
          "internalType": "address",
          "name": "sender",
          "type": "address"
        }
      ],
      "name": "RoleRevoked",
      "type": "event"
    },
    {
      "anonymous": false,
      "inputs": [
        {
          "indexed": true,
          "internalType": "address",
          "name": "from",
          "type": "address"
        },
        {
          "indexed": true,
          "internalType": "address",
          "name": "to",
          "type": "address"
        },
        {
          "indexed": false,
          "internalType": "uint256",
          "name": "value",
          "type": "uint256"
        }
      ],
      "name": "Transfer",
      "type": "event"
    },
    {
      "anonymous": false,
      "inputs": [
        {
          "indexed": false,
          "internalType": "uint256",
          "name": "date",
          "type": "uint256"
        },
        {
          "indexed": true,
          "internalType": "address",
          "name": "user",
          "type": "address"
        },
        {
          "indexed": false,
          "internalType": "uint256",
          "name": "amount",
          "type": "uint256"
        }
      ],
      "name": "Withdrew",
      "type": "event"
    },
    {
      "anonymous": false,
      "inputs": [
        {
          "indexed": false,
          "internalType": "uint256",
          "name": "date",
          "type": "uint256"
        },
        {
          "indexed": true,
          "internalType": "address",
          "name": "user",
          "type": "address"
        },
        {
          "indexed": false,
          "internalType": "uint256",
          "name": "totalDeposited",
          "type": "uint256"
        },
        {
          "indexed": false,
          "internalType": "uint256",
          "name": "totalBorrowed",
          "type": "uint256"
        },
        {
          "indexed": false,
          "internalType": "uint256",
          "name": "totalProfit",
          "type": "uint256"
        }
      ],
      "name": "totalHistory",
      "type": "event"
    },
    {
      "inputs": [],
      "name": "ADMIN_ROLE",
      "outputs": [
        {
          "internalType": "bytes32",
          "name": "",
          "type": "bytes32"
        }
      ],
      "stateMutability": "view",
      "type": "function"
    },
    {
      "inputs": [],
      "name": "BORROWER_ROLE",
      "outputs": [
        {
          "internalType": "bytes32",
          "name": "",
          "type": "bytes32"
        }
      ],
      "stateMutability": "view",
      "type": "function"
    },
    {
      "inputs": [],
      "name": "DEFAULT_ADMIN_ROLE",
      "outputs": [
        {
          "internalType": "bytes32",
          "name": "",
          "type": "bytes32"
        }
      ],
      "stateMutability": "view",
      "type": "function"
    },
    {
      "inputs": [
        {
          "internalType": "address",
          "name": "owner",
          "type": "address"
        },
        {
          "internalType": "address",
          "name": "spender",
          "type": "address"
        }
      ],
      "name": "allowance",
      "outputs": [
        {
          "internalType": "uint256",
          "name": "",
          "type": "uint256"
        }
      ],
      "stateMutability": "view",
      "type": "function"
    },
    {
      "inputs": [
        {
          "internalType": "address",
          "name": "spender",
          "type": "address"
        },
        {
          "internalType": "uint256",
          "name": "amount",
          "type": "uint256"
        }
      ],
      "name": "approve",
      "outputs": [
        {
          "internalType": "bool",
          "name": "",
          "type": "bool"
        }
      ],
      "stateMutability": "nonpayable",
      "type": "function"
    },
    {
      "inputs": [
        {
          "internalType": "address",
          "name": "user",
          "type": "address"
        }
      ],
      "name": "availableCtl",
      "outputs": [
        {
          "internalType": "uint256",
          "name": "",
          "type": "uint256"
        }
      ],
      "stateMutability": "view",
      "type": "function"
    },
    {
      "inputs": [
        {
          "internalType": "address",
          "name": "user",
          "type": "address"
        }
      ],
      "name": "availableReward",
      "outputs": [
        {
          "internalType": "uint256",
          "name": "",
          "type": "uint256"
        }
      ],
      "stateMutability": "view",
      "type": "function"
    },
    {
      "inputs": [
        {
          "internalType": "address",
          "name": "account",
          "type": "address"
        }
      ],
      "name": "balanceOf",
      "outputs": [
        {
          "internalType": "uint256",
          "name": "",
          "type": "uint256"
        }
      ],
      "stateMutability": "view",
      "type": "function"
    },
    {
      "inputs": [
        {
          "internalType": "address",
          "name": "spender",
          "type": "address"
        }
      ],
      "name": "claimCtl",
      "outputs": [],
      "stateMutability": "nonpayable",
      "type": "function"
    },
    {
      "inputs": [
        {
          "internalType": "address",
          "name": "spender",
          "type": "address"
        }
      ],
      "name": "claimRewards",
      "outputs": [],
      "stateMutability": "nonpayable",
      "type": "function"
    },
    {
      "inputs": [],
      "name": "decimals",
      "outputs": [
        {
          "internalType": "uint256",
          "name": "",
          "type": "uint256"
        }
      ],
      "stateMutability": "view",
      "type": "function"
    },
    {
      "inputs": [
        {
          "internalType": "address",
          "name": "spender",
          "type": "address"
        },
        {
          "internalType": "uint256",
          "name": "subtractedValue",
          "type": "uint256"
        }
      ],
      "name": "decreaseAllowance",
      "outputs": [
        {
          "internalType": "bool",
          "name": "",
          "type": "bool"
        }
      ],
      "stateMutability": "nonpayable",
      "type": "function"
    },
    {
      "inputs": [
        {
          "internalType": "uint256",
          "name": "amount",
          "type": "uint256"
        }
      ],
      "name": "deposit",
      "outputs": [],
      "stateMutability": "nonpayable",
      "type": "function"
    },
    {
      "inputs": [],
      "name": "disable",
      "outputs": [],
      "stateMutability": "nonpayable",
      "type": "function"
    },
    {
      "inputs": [],
      "name": "enable",
      "outputs": [],
      "stateMutability": "nonpayable",
      "type": "function"
    },
    {
      "inputs": [],
      "name": "enabled",
      "outputs": [
        {
          "internalType": "bool",
          "name": "",
          "type": "bool"
        }
      ],
      "stateMutability": "view",
      "type": "function"
    },
    {
      "inputs": [
        {
          "internalType": "address",
          "name": "receiver",
          "type": "address"
        },
        {
          "internalType": "uint256",
          "name": "amount",
          "type": "uint256"
        },
        {
          "internalType": "uint256",
          "name": "premium",
          "type": "uint256"
        },
        {
          "internalType": "bytes",
          "name": "params",
          "type": "bytes"
        }
      ],
      "name": "flashLoan",
      "outputs": [],
      "stateMutability": "nonpayable",
      "type": "function"
    },
    {
      "inputs": [],
      "name": "getCommonData",
      "outputs": [
        {
          "components": [
            {
              "internalType": "uint256",
              "name": "decimals",
              "type": "uint256"
            },
            {
              "internalType": "uint256",
              "name": "totalStaked",
              "type": "uint256"
            },
            {
              "internalType": "uint256",
              "name": "totalProfit",
              "type": "uint256"
            },
            {
              "internalType": "uint256",
              "name": "totalBorrowed",
              "type": "uint256"
            },
            {
              "internalType": "uint256",
              "name": "tokensPerBlock",
              "type": "uint256"
            },
            {
              "internalType": "uint256",
              "name": "apyTax",
              "type": "uint256"
            },
            {
              "internalType": "uint256",
              "name": "premiumCoeff",
              "type": "uint256"
            },
            {
              "internalType": "uint256",
              "name": "tokensPerStaked",
              "type": "uint256"
            },
            {
              "internalType": "uint256",
              "name": "ctlPerStaked",
              "type": "uint256"
            },
            {
              "internalType": "contract IERC20",
              "name": "token",
              "type": "address"
            },
            {
              "internalType": "contract ICTLToken",
              "name": "ctlToken",
              "type": "address"
            },
            {
              "internalType": "bool",
              "name": "enabled",
              "type": "bool"
            },
            {
              "internalType": "string",
              "name": "name",
              "type": "string"
            },
            {
              "internalType": "string",
              "name": "symbol",
              "type": "string"
            }
          ],
          "internalType": "struct CitadelPool.CommonData",
          "name": "",
          "type": "tuple"
        }
      ],
      "stateMutability": "view",
      "type": "function"
    },
    {
      "inputs": [],
      "name": "getOwner",
      "outputs": [
        {
          "internalType": "address",
          "name": "",
          "type": "address"
        }
      ],
      "stateMutability": "view",
      "type": "function"
    },
    {
      "inputs": [
        {
          "internalType": "bytes32",
          "name": "role",
          "type": "bytes32"
        }
      ],
      "name": "getRoleAdmin",
      "outputs": [
        {
          "internalType": "bytes32",
          "name": "",
          "type": "bytes32"
        }
      ],
      "stateMutability": "view",
      "type": "function"
    },
    {
      "inputs": [
        {
          "internalType": "bytes32",
          "name": "role",
          "type": "bytes32"
        },
        {
          "internalType": "uint256",
          "name": "index",
          "type": "uint256"
        }
      ],
      "name": "getRoleMember",
      "outputs": [
        {
          "internalType": "address",
          "name": "",
          "type": "address"
        }
      ],
      "stateMutability": "view",
      "type": "function"
    },
    {
      "inputs": [
        {
          "internalType": "bytes32",
          "name": "role",
          "type": "bytes32"
        }
      ],
      "name": "getRoleMemberCount",
      "outputs": [
        {
          "internalType": "uint256",
          "name": "",
          "type": "uint256"
        }
      ],
      "stateMutability": "view",
      "type": "function"
    },
    {
      "inputs": [],
      "name": "getTopKeepers",
      "outputs": [
        {
          "components": [
            {
              "internalType": "address",
              "name": "user",
              "type": "address"
            },
            {
              "internalType": "uint256",
              "name": "staked",
              "type": "uint256"
            }
          ],
          "internalType": "struct CitadelPool.Top[10]",
          "name": "",
          "type": "tuple[10]"
        }
      ],
      "stateMutability": "view",
      "type": "function"
    },
    {
      "inputs": [],
      "name": "getTopProviders",
      "outputs": [
        {
          "components": [
            {
              "internalType": "address",
              "name": "user",
              "type": "address"
            },
            {
              "internalType": "uint256",
              "name": "staked",
              "type": "uint256"
            }
          ],
          "internalType": "struct CitadelPool.Top[10]",
          "name": "",
          "type": "tuple[10]"
        }
      ],
      "stateMutability": "view",
      "type": "function"
    },
    {
      "inputs": [
        {
          "internalType": "address",
          "name": "user",
          "type": "address"
        }
      ],
      "name": "getUserData",
      "outputs": [
        {
          "components": [
            {
              "internalType": "uint256",
              "name": "totalStaked",
              "type": "uint256"
            },
            {
              "internalType": "uint256",
              "name": "balanceOf",
              "type": "uint256"
            },
            {
              "internalType": "uint256",
              "name": "claimedReward",
              "type": "uint256"
            },
            {
              "internalType": "uint256",
              "name": "claimedCtl",
              "type": "uint256"
            },
            {
              "internalType": "uint256",
              "name": "availableReward",
              "type": "uint256"
            },
            {
              "internalType": "uint256",
              "name": "availableCtl",
              "type": "uint256"
            },
            {
              "internalType": "uint256",
              "name": "totalBorrowed",
              "type": "uint256"
            },
            {
              "internalType": "uint256",
              "name": "totalProfit",
              "type": "uint256"
            },
            {
              "internalType": "bool",
              "name": "is_admin",
              "type": "bool"
            }
          ],
          "internalType": "struct CitadelPool.UserData",
          "name": "",
          "type": "tuple"
        }
      ],
      "stateMutability": "view",
      "type": "function"
    },
    {
      "inputs": [
        {
          "internalType": "bytes32",
          "name": "role",
          "type": "bytes32"
        },
        {
          "internalType": "address",
          "name": "account",
          "type": "address"
        }
      ],
      "name": "grantRole",
      "outputs": [],
      "stateMutability": "nonpayable",
      "type": "function"
    },
    {
      "inputs": [
        {
          "internalType": "bytes32",
          "name": "role",
          "type": "bytes32"
        },
        {
          "internalType": "address",
          "name": "account",
          "type": "address"
        }
      ],
      "name": "hasRole",
      "outputs": [
        {
          "internalType": "bool",
          "name": "",
          "type": "bool"
        }
      ],
      "stateMutability": "view",
      "type": "function"
    },
    {
      "inputs": [
        {
          "internalType": "address",
          "name": "spender",
          "type": "address"
        },
        {
          "internalType": "uint256",
          "name": "addedValue",
          "type": "uint256"
        }
      ],
      "name": "increaseAllowance",
      "outputs": [
        {
          "internalType": "bool",
          "name": "",
          "type": "bool"
        }
      ],
      "stateMutability": "nonpayable",
      "type": "function"
    },
    {
      "inputs": [],
      "name": "name",
      "outputs": [
        {
          "internalType": "string",
          "name": "",
          "type": "string"
        }
      ],
      "stateMutability": "view",
      "type": "function"
    },
    {
      "inputs": [],
      "name": "prevMintingBlock",
      "outputs": [
        {
          "internalType": "uint256",
          "name": "",
          "type": "uint256"
        }
      ],
      "stateMutability": "view",
      "type": "function"
    },
    {
      "inputs": [
        {
          "internalType": "bytes32",
          "name": "role",
          "type": "bytes32"
        },
        {
          "internalType": "address",
          "name": "account",
          "type": "address"
        }
      ],
      "name": "renounceRole",
      "outputs": [],
      "stateMutability": "nonpayable",
      "type": "function"
    },
    {
      "inputs": [
        {
          "internalType": "bytes32",
          "name": "role",
          "type": "bytes32"
        },
        {
          "internalType": "address",
          "name": "account",
          "type": "address"
        }
      ],
      "name": "revokeRole",
      "outputs": [],
      "stateMutability": "nonpayable",
      "type": "function"
    },
    {
      "inputs": [],
      "name": "symbol",
      "outputs": [
        {
          "internalType": "string",
          "name": "",
          "type": "string"
        }
      ],
      "stateMutability": "view",
      "type": "function"
    },
    {
      "inputs": [],
      "name": "tokensPerBlock",
      "outputs": [
        {
          "internalType": "uint256",
          "name": "",
          "type": "uint256"
        }
      ],
      "stateMutability": "view",
      "type": "function"
    },
    {
      "inputs": [],
      "name": "totalSupply",
      "outputs": [
        {
          "internalType": "uint256",
          "name": "",
          "type": "uint256"
        }
      ],
      "stateMutability": "view",
      "type": "function"
    },
    {
      "inputs": [
        {
          "internalType": "address",
          "name": "recipient",
          "type": "address"
        },
        {
          "internalType": "uint256",
          "name": "amount",
          "type": "uint256"
        }
      ],
      "name": "transfer",
      "outputs": [
        {
          "internalType": "bool",
          "name": "",
          "type": "bool"
        }
      ],
      "stateMutability": "nonpayable",
      "type": "function"
    },
    {
      "inputs": [
        {
          "internalType": "address",
          "name": "sender",
          "type": "address"
        },
        {
          "internalType": "address",
          "name": "recipient",
          "type": "address"
        },
        {
          "internalType": "uint256",
          "name": "amount",
          "type": "uint256"
        }
      ],
      "name": "transferFrom",
      "outputs": [
        {
          "internalType": "bool",
          "name": "",
          "type": "bool"
        }
      ],
      "stateMutability": "nonpayable",
      "type": "function"
    },
    {
      "inputs": [
        {
          "internalType": "uint256",
          "name": "apyTax_",
          "type": "uint256"
        },
        {
          "internalType": "uint256",
          "name": "premiumCoeff_",
          "type": "uint256"
        },
        {
          "internalType": "uint256",
          "name": "tokensPerBlock_",
          "type": "uint256"
        },
        {
          "internalType": "bool",
          "name": "enabled_",
          "type": "bool"
        }
      ],
      "name": "updatePool",
      "outputs": [],
      "stateMutability": "nonpayable",
      "type": "function"
    },
    {
      "inputs": [
        {
          "internalType": "address",
          "name": "",
          "type": "address"
        }
      ],
      "name": "userLoaned",
      "outputs": [
        {
          "internalType": "uint256",
          "name": "borrowed",
          "type": "uint256"
        },
        {
          "internalType": "uint256",
          "name": "profit",
          "type": "uint256"
        }
      ],
      "stateMutability": "view",
      "type": "function"
    },
    {
      "inputs": [
        {
          "internalType": "address",
          "name": "",
          "type": "address"
        }
      ],
      "name": "userStaked",
      "outputs": [
        {
          "internalType": "uint256",
          "name": "totalStaked",
          "type": "uint256"
        },
        {
          "internalType": "uint256",
          "name": "missedProfit",
          "type": "uint256"
        },
        {
          "internalType": "uint256",
          "name": "claimedReward",
          "type": "uint256"
        },
        {
          "internalType": "uint256",
          "name": "missedCtl",
          "type": "uint256"
        },
        {
          "internalType": "uint256",
          "name": "claimedCtl",
          "type": "uint256"
        },
        {
          "internalType": "bool",
          "name": "signMissedProfit",
          "type": "bool"
        },
        {
          "internalType": "bool",
          "name": "signMissedCtl",
          "type": "bool"
        }
      ],
      "stateMutability": "view",
      "type": "function"
    },
    {
      "inputs": [
        {
          "internalType": "uint256",
          "name": "amount",
          "type": "uint256"
        }
      ],
      "name": "withdraw",
      "outputs": [],
      "stateMutability": "nonpayable",
      "type": "function"
    }
  ],
  "bytecode": "0x60c06040523480156200001157600080fd5b5060405162004215380380620042158339810160408190526200003491620005af565b866001600160a01b03166306fdde036040518163ffffffff1660e01b815260040160006040518083038186803b1580156200006e57600080fd5b505afa15801562000083573d6000803e3d6000fd5b505050506040513d6000823e601f3d908101601f19168201604052620000ad91908101906200062f565b604051602001620000bf9190620006e6565b60405160208183030381529060405260049080519060200190620000e5929190620004e6565b50866001600160a01b03166395d89b416040518163ffffffff1660e01b815260040160006040518083038186803b1580156200012057600080fd5b505afa15801562000135573d6000803e3d6000fd5b505050506040513d6000823e601f3d908101601f191682016040526200015f91908101906200062f565b604051602001620001719190620006e6565b6040516020818303038152906040526003908051906020019062000197929190620004e6565b50866001600160a01b031663313ce5676040518163ffffffff1660e01b815260040160206040518083038186803b158015620001d257600080fd5b505afa158015620001e7573d6000803e3d6000fd5b505050506040513d601f19601f820116820180604052508101906200020d9190620006cd565b600255600060018190556001600160601b0319606089811b821660805288901b1660a0526030869055603585905560378490556036805483151560ff19909116179055600580546001600160a01b031916331790556200026e908362000380565b62000289600080516020620041f58339815191528362000380565b620002a5600080516020620041f5833981519152600062000390565b620002e07f2344277e405079ec07749d374ba0b5862a4e45a6a05ac889dbb4a991c6f9354d600080516020620041f583398151915262000390565b6000866001600160a01b03166348cd4cb16040518163ffffffff1660e01b815260040160206040518083038186803b1580156200031c57600080fd5b505afa15801562000331573d6000803e3d6000fd5b505050506040513d601f19601f82011682018060405250810190620003579190620006cd565b9050804311156200036c574360385562000372565b60388190555b505050505050505062000745565b6200038c8282620003e2565b5050565b600082815260208190526040808220600201549051839285917fbd79b86ffe0ab8e8776151514217cd7cacd52c909f66475c3af44e129f0b00ff9190a460009182526020829052604090912060020155565b6000828152602081815260409091206200040791839062001da06200045b821b17901c565b156200038c57620004176200047b565b6001600160a01b0316816001600160a01b0316837f2f8788117e7eff1d82e926ec794901d17c78024a50270940304540a733656f0d60405160405180910390a45050565b600062000472836001600160a01b0384166200047f565b90505b92915050565b3390565b60006200048d8383620004ce565b620004c55750815460018181018455600084815260208082209093018490558454848252828601909352604090209190915562000475565b50600062000475565b60009081526001919091016020526040902054151590565b828054600181600116156101000203166002900490600052602060002090601f0160209004810192826200051e576000855562000569565b82601f106200053957805160ff191683800117855562000569565b8280016001018555821562000569579182015b82811115620005695782518255916020019190600101906200054c565b50620005779291506200057b565b5090565b5b808211156200057757600081556001016200057c565b80516001600160a01b0381168114620005aa57600080fd5b919050565b600080600080600080600060e0888a031215620005ca578283fd5b620005d58862000592565b9650620005e56020890162000592565b95506040880151945060608801519350608088015192506200060a60a0890162000592565b915060c088015180151581146200061f578182fd5b8091505092959891949750929550565b60006020828403121562000641578081fd5b81516001600160401b038082111562000658578283fd5b818401915084601f8301126200066c578283fd5b8151818111156200067957fe5b604051601f8201601f1916810160200183811182821017156200069857fe5b604052818152838201602001871015620006b0578485fd5b620006c382602083016020870162000712565b9695505050505050565b600060208284031215620006df578081fd5b5051919050565b60006118dd60f21b825282516200070581600285016020870162000712565b9190910160020192915050565b60005b838110156200072f57818101518382015260200162000715565b838111156200073f576000848401525b50505050565b60805160601c60a05160601c613a3b620007ba600039806108e65280610b0352806110f45280611501528061160a52806118b252806120f85250806107e152806108b7528061092c52806109c65280610ca052806111bc528061120752806112a552806119f15280611bca5250613a3b6000f3fe608060405234801561001057600080fd5b50600436106102535760003560e01c806370a0823111610146578063a457c2d7116100c3578063d547741f11610087578063d547741f146104b8578063d8e8d5d9146104cb578063dd62ed3e146104ec578063ef5cfb8c146104ff578063f7ab179c14610512578063ffc9896b1461051a57610253565b8063a457c2d714610446578063a9059cbb14610459578063acc3a9391461046c578063b6b55f2514610492578063ca15c873146104a557610253565b806391d148541161010a57806391d148541461040857806395d89b411461041b5780639e2f86df14610423578063a217fddf14610436578063a3907d711461043e57610253565b806370a08231146103b257806375b238fc146103c55780637980f36a146103cd578063893d20e8146103e05780639010d07c146103f557610253565b80632d08ffd8116101d457806336568abe1161019857806336568abe1461035e578063376582f714610371578063395093511461038457806344e97b4714610397578063679f05791461039f57610253565b80632d08ffd8146103115780632e1a7d4d146103265780632f2770db1461033b5780632f2ff15d14610343578063313ce5671461035657610253565b806318160ddd1161021b57806318160ddd146102d35780631a1cb01f146102db578063238dafe0146102e357806323b872dd146102eb578063248a9ca3146102fe57610253565b8063066fd8991461025857806306fdde0314610281578063095ea7b3146102965780630e7b949e146102b65780630ee7e446146102be575b600080fd5b61026b610266366004612f49565b61053a565b6040516102789190613293565b60405180910390f35b6102896105c9565b60405161027891906132f5565b6102a96102a4366004612fd0565b61065f565b6040516102789190613288565b61026b610676565b6102c661069a565b6040516102789190613241565b61026b610700565b61026b610706565b6102a961070c565b6102a96102f9366004612f95565b610715565b61026b61030c3660046130a4565b6107b6565b6103196107cb565b604051610278919061363c565b6103396103343660046130a4565b610a60565b005b610339610d41565b6103396103513660046130bc565b610d77565b61026b610dde565b61033961036c3660046130bc565b610de4565b61033961037f3660046131ae565b610e45565b6102a9610392366004612fd0565b610ec9565b6102c6610f23565b6103396103ad366004612ff9565b610f64565b61026b6103c0366004612f49565b61135d565b61026b611378565b61026b6103db366004612f49565b61139c565b6103e8611420565b604051610278919061322d565b6103e86104033660046130de565b61142f565b6102a96104163660046130bc565b611447565b61028961145f565b610339610431366004612f49565b6114c0565b61026b61167a565b61033961167f565b6102a9610454366004612fd0565b6116b8565b6102a9610467366004612fd0565b61172a565b61047f61047a366004612f49565b611765565b60405161027897969594939291906137c1565b6103396104a03660046130a4565b6117a6565b61026b6104b33660046130a4565b611a95565b6103396104c63660046130bc565b611aac565b6104de6104d9366004612f49565b611b05565b604051610278929190613782565b61026b6104fa366004612f63565b611b1e565b61033961050d366004612f49565b611b49565b61026b611c66565b61052d610528366004612f49565b611c6c565b604051610278919061371b565b6001600160a01b0381166000908152603a602052604081206002546032548254849261057692600a9190910a9161057091611db5565b90611e0e565b600583015490915060ff1661059c576001820154610595908290611e75565b90506105af565b60018201546105ac908290611ed2565b90505b60028201546105bf908290611e75565b925050505b919050565b60048054604080516020601f60026000196101006001881615020190951694909404938401819004810282018101909252828152606093909290918301828280156106555780601f1061062a57610100808354040283529160200191610655565b820191906000526020600020905b81548152906001019060200180831161063857829003601f168201915b5050505050905090565b600061066c338484611f2c565b5060015b92915050565b7f2344277e405079ec07749d374ba0b5862a4e45a6a05ac889dbb4a991c6f9354d81565b6106a2612e1c565b604080516101408101909152601a600a6000835b828210156106f7576040805180820190915260028302850180546001600160a01b0316825260019081015460208084019190915291835290920191016106b6565b50505050905090565b60015490565b60375490565b60365460ff1690565b60365460009060ff166107435760405162461bcd60e51b815260040161073a9061334d565b60405180910390fd5b61074e848484611fe0565b6107598484846121be565b6107ab84336107a685604051806060016040528060288152602001613881602891396001600160a01b038a166000908152602f6020908152604080832033845290915290205491906122c8565b611f2c565b5060015b9392505050565b60009081526020819052604090206002015490565b6107d3612e4a565b604051806101c001604052807f00000000000000000000000000000000000000000000000000000000000000006001600160a01b031663313ce5676040518163ffffffff1660e01b815260040160206040518083038186803b15801561083857600080fd5b505afa15801561084c573d6000803e3d6000fd5b505050506040513d601f19601f820116820180604052508101906108709190613196565b8152602001603354815260200160315481526020016034548152602001603754815260200160305481526020016035548152602001603254815260200160395481526020017f00000000000000000000000000000000000000000000000000000000000000006001600160a01b031681526020017f00000000000000000000000000000000000000000000000000000000000000006001600160a01b03168152602001603660009054906101000a900460ff16151581526020017f00000000000000000000000000000000000000000000000000000000000000006001600160a01b03166306fdde036040518163ffffffff1660e01b815260040160006040518083038186803b15801561098357600080fd5b505afa158015610997573d6000803e3d6000fd5b505050506040513d6000823e601f3d908101601f191682016040526109bf91908101906130ff565b81526020017f00000000000000000000000000000000000000000000000000000000000000006001600160a01b03166395d89b416040518163ffffffff1660e01b815260040160006040518083038186803b158015610a1d57600080fd5b505afa158015610a31573d6000803e3d6000fd5b505050506040513d6000823e601f3d908101601f19168201604052610a5991908101906130ff565b9052905090565b60365460ff16610a825760405162461bcd60e51b815260040161073a9061334d565b336000908152603a602052604090208115801590610aa1575080548211155b610abd5760405162461bcd60e51b815260040161073a9061350f565b603354610aca8184611e75565b6033558154610ad99084611e75565b8255600254603254610aff913391610afa91600a0a90610570908890611db5565b61235f565b60007f00000000000000000000000000000000000000000000000000000000000000006001600160a01b0316631249c58b6040518163ffffffff1660e01b8152600401602060405180830381600087803b158015610b5c57600080fd5b505af1158015610b70573d6000803e3d6000fd5b505050506040513d601f19601f82011682018060405250810190610b949190613196565b90508015610c775760335415610c3057610bd8610bcf83610570600254600a0a610bc960375487611e7590919063ffffffff16565b90611db5565b60395490611ed2565b603981905550610c0533610c00600254600a0a61057060395489611db590919063ffffffff16565b6123ef565b610c28610bcf603354610570600254600a0a603754611db590919063ffffffff16565b603955610c77565b610c4f610bcf83610570600254600a0a85611db590919063ffffffff16565b603981905550610c7733610c00600254600a0a61057060395489611db590919063ffffffff16565b436038558254610c8990600690612480565b610c9333856125e4565b610cc76001600160a01b037f00000000000000000000000000000000000000000000000000000000000000001633866126ba565b336001600160a01b03167ff4c56bb5a568ebcb1087fa42400137fd62e67119180ddfe97906e108ecc0e6334286604051610d02929190613782565b60405180910390a260335460345460315460405133936000805160206138cf83398151915293610d339342936137a6565b60405180910390a250505050565b6005546001600160a01b03163314610d6b5760405162461bcd60e51b815260040161073a906134af565b6036805460ff19169055565b600082815260208190526040902060020154610d959061041661270c565b610dd05760405162461bcd60e51b815260040180806020018281038252602f815260200180613852602f913960400191505060405180910390fd5b610dda8282612710565b5050565b60025490565b610dec61270c565b6001600160a01b0316816001600160a01b031614610e3b5760405162461bcd60e51b815260040180806020018281038252602f8152602001806139d7602f913960400191505060405180910390fd5b610dda8282612779565b610e6f7fa49807205ce4d355092ef5a8a18f56e8913cf4a201fbe287825b095693c2177533611447565b610e8b5760405162461bcd60e51b815260040161073a9061340a565b60305415610e995760308490555b60355415610ea75760358390555b8115610eb35760378290555b6036805460ff1916911515919091179055505050565b60365460009060ff16610eee5760405162461bcd60e51b815260040161073a9061334d565b336000818152602f602090815260408083206001600160a01b038816845290915290205461066c919085906107a69086611ed2565b610f2b612e1c565b604080516101808101909152600680546001600160a01b031661014083019081526007546101608401528252600a6001602084016106b6565b60365460ff16610f865760405162461bcd60e51b815260040161073a9061334d565b610fb07f2344277e405079ec07749d374ba0b5862a4e45a6a05ac889dbb4a991c6f9354d33611447565b610fcc5760405162461bcd60e51b815260040161073a90613441565b336000908152603b60205260409020600554600160a01b900460ff16156110055760405162461bcd60e51b815260040161073a9061360c565b60008511801561101757506033548511155b6110335760405162461bcd60e51b815260040161073a9061350f565b60355461105286610570600254600a0a88611db590919063ffffffff16565b10156110705760405162461bcd60e51b815260040161073a90613478565b6005805460ff60a01b1916600160a01b1790556034546110909086611ed2565b603455805461109f9086611ed2565b815560018101546110b09085611ed2565b60018201556031546110c29085611ed2565b6031556033546002546110ea916110e191610570908890600a0a611db5565b60325490611ed2565b60328190555060007f00000000000000000000000000000000000000000000000000000000000000006001600160a01b0316631249c58b6040518163ffffffff1660e01b8152600401602060405180830381600087803b15801561114d57600080fd5b505af1158015611161573d6000803e3d6000fd5b505050506040513d601f19601f820116820180604052508101906111859190613196565b90506111a8610bcf603354610570600254600a0a85611db590919063ffffffff16565b603955436038556111e36001600160a01b037f00000000000000000000000000000000000000000000000000000000000000001688886126ba565b604051631b11d0ff60e01b81526001600160a01b03881690631b11d0ff90611239907f0000000000000000000000000000000000000000000000000000000000000000908a908a9033908b908b9060040161329c565b602060405180830381600087803b15801561125357600080fd5b505af1158015611267573d6000803e3d6000fd5b505050506040513d601f19601f8201168201806040525081019061128b9190613088565b506112cd873061129b8989611ed2565b6001600160a01b037f0000000000000000000000000000000000000000000000000000000000000000169291906127e2565b6005805460ff60a01b191690556040516001600160a01b0388169033907f87c524b52f5f291b751e3cc567f37e3c423b48770a3827e589e48a4a17728ec49061131b9042908b908b90613790565b60405180910390a360335460345460315460405133936000805160206138cf8339815191529361134c9342936137a6565b60405180910390a250505050505050565b6001600160a01b03166000908152602e602052604090205490565b7fa49807205ce4d355092ef5a8a18f56e8913cf4a201fbe287825b095693c2177581565b6001600160a01b0381166000908152603a60205260408120600254603954825484926113d292600a9190910a9161057091611db5565b6005830154909150610100900460ff166113fd5760038201546113f6908290611e75565b9050611410565b600382015461140d908290611ed2565b90505b60048201546105bf908290611e75565b6005546001600160a01b031690565b60008281526020819052604081206107af9083612842565b60008281526020819052604081206107af908361284e565b60038054604080516020601f60026000196101006001881615020190951694909404938401819004810282018101909252828152606093909290918301828280156106555780601f1061062a57610100808354040283529160200191610655565b6005546001600160a01b031633146114ea5760405162461bcd60e51b815260040161073a906133be565b60365460ff161561167757603354156115be5760007f00000000000000000000000000000000000000000000000000000000000000006001600160a01b0316631249c58b6040518163ffffffff1660e01b8152600401602060405180830381600087803b15801561155a57600080fd5b505af115801561156e573d6000803e3d6000fd5b505050506040513d601f19601f820116820180604052508101906115929190613196565b90506115b5610bcf603354610570600254600a0a85611db590919063ffffffff16565b60395550436038555b60006115c98261139c565b90508015610dda576001600160a01b0382166000908152603a6020526040902060048101546115f89083611ed2565b60048201556116316001600160a01b037f00000000000000000000000000000000000000000000000000000000000000001684846126ba565b826001600160a01b03167f6d46424d7308d93179bbc5c8c01e098e8353dad13aff9809fd8a881a69feaa3a428460405161166c929190613782565b60405180910390a250505b50565b600081565b6005546001600160a01b031633146116a95760405162461bcd60e51b815260040161073a906134af565b6036805460ff19166001179055565b60365460009060ff166116dd5760405162461bcd60e51b815260040161073a9061334d565b61066c33846107a68560405180606001604052806025815260200161396660259139336000908152602f602090815260408083206001600160a01b038d16845290915290205491906122c8565b60365460009060ff1661174f5760405162461bcd60e51b815260040161073a9061334d565b61175a338484611fe0565b61066c3384846121be565b603a60205260009081526040902080546001820154600283015460038401546004850154600590950154939492939192909160ff8082169161010090041687565b60365460ff166117c85760405162461bcd60e51b815260040161073a9061334d565b600081116117e85760405162461bcd60e51b815260040161073a9061350f565b336000908152603a6020526040812060025460305491929161181391600a0a90610570908690611db5565b905060006118218483611e75565b6033549091506118318183611ed2565b60335583546118409083611ed2565b845560315461184f9084611ed2565b60318190555061187c33611877600254600a0a61057060325487611db590919063ffffffff16565b612863565b61189d6110e1603354610570600254600a0a87611db590919063ffffffff16565b603255806118ae5760001943016038555b60007f00000000000000000000000000000000000000000000000000000000000000006001600160a01b0316631249c58b6040518163ffffffff1660e01b8152600401602060405180830381600087803b15801561190b57600080fd5b505af115801561191f573d6000803e3d6000fd5b505050506040513d601f19601f820116820180604052508101906119439190613196565b905080156119c857811561197a57611976610bcf83610570600254600a0a610bc960375487611e7590919063ffffffff16565b6039555b6119a13361199c600254600a0a61057060395488611db590919063ffffffff16565b6128c9565b6119c4610bcf603354610570600254600a0a603754611db590919063ffffffff16565b6039555b4360385584546119da90600690612480565b6119e43384612935565b611a196001600160a01b037f0000000000000000000000000000000000000000000000000000000000000000163330896127e2565b336001600160a01b03167f1599c0fcf897af5babc2bfcf707f5dc050f841b044d97c3251ecec35b9abf80b4285604051611a54929190613782565b60405180910390a260335460345460315460405133936000805160206138cf83398151915293611a859342936137a6565b60405180910390a2505050505050565b6000818152602081905260408120610670906129dd565b600082815260208190526040902060020154611aca9061041661270c565b610e3b5760405162461bcd60e51b81526004018080602001828103825260308152602001806138ef6030913960400191505060405180910390fd5b603b602052600090815260409020805460019091015482565b6001600160a01b039182166000908152602f6020908152604080832093909416825291909152205490565b6005546001600160a01b03163314611b735760405162461bcd60e51b815260040161073a906133be565b60365460ff1615611677576000611b898261053a565b90508015610dda576001600160a01b0382166000908152603a602052604090206002810154611bb89083611ed2565b6002820155611bf16001600160a01b037f00000000000000000000000000000000000000000000000000000000000000001684846126ba565b826001600160a01b03167f6d46424d7308d93179bbc5c8c01e098e8353dad13aff9809fd8a881a69feaa3a4284604051611c2c929190613782565b60405180910390a26033546034546031546040516001600160a01b038716936000805160206138cf8339815191529361166c9342936137a6565b60385490565b611c74612ecd565b6001600160a01b0382166000818152603a60209081526040808320815160e08101835281548152600182015481850152600282015481840190815260038301546060808401919091526004840154608080850191825260059095015460ff808216151560a087015261010090910416151560c085015285516101208101875284518152988852602e8752968590205495880195909552519286019290925292519184019190915291908101611d288561053a565b8152602001611d368561139c565b81526001600160a01b0385166000818152603b60208181526040808420805483880152949093525260019091015490820152606001611d957fa49807205ce4d355092ef5a8a18f56e8913cf4a201fbe287825b095693c2177586611447565b151590529392505050565b60006107af836001600160a01b0384166129e8565b600082611dc457506000610670565b82820282848281611dd157fe5b04146107af5760405162461bcd60e51b815260040180806020018281038252602181526020018061391f6021913960400191505060405180910390fd5b6000808211611e64576040805162461bcd60e51b815260206004820152601a60248201527f536166654d6174683a206469766973696f6e206279207a65726f000000000000604482015290519081900360640190fd5b818381611e6d57fe5b049392505050565b600082821115611ecc576040805162461bcd60e51b815260206004820152601e60248201527f536166654d6174683a207375627472616374696f6e206f766572666c6f770000604482015290519081900360640190fd5b50900390565b6000828201838110156107af576040805162461bcd60e51b815260206004820152601b60248201527f536166654d6174683a206164646974696f6e206f766572666c6f770000000000604482015290519081900360640190fd5b6001600160a01b038316611f525760405162461bcd60e51b815260040161073a9061337a565b6001600160a01b038216611f785760405162461bcd60e51b815260040161073a906135ca565b6001600160a01b038084166000818152602f602090815260408083209487168084529490915290819020849055517f8c5be1e5ebec7d5bd14f71427d1e84f3dd0314c0f7b2291e5b200ac8c7c3b92590611fd3908590613293565b60405180910390a3505050565b6001600160a01b0383166000908152603a6020526040812080546002549192916120139190610570908690600a0a611db5565b90506000612037600254600a0a610570848660020154611db590919063ffffffff16565b9050600061205b600254600a0a610570858760010154611db590919063ffffffff16565b845490915061206a9086611e75565b8455600284015461207b9083611e75565b6002850155600184015461208f9082611e75565b60018501556001600160a01b0386166000908152603a6020526040902080546120b89087611ed2565b815560028101546120c99084611ed2565b6002820155600585015460ff16156120ea576120e5878361235f565b6120f4565b6120f48783612863565b60007f00000000000000000000000000000000000000000000000000000000000000006001600160a01b0316631249c58b6040518163ffffffff1660e01b8152600401602060405180830381600087803b15801561215157600080fd5b505af1158015612165573d6000803e3d6000fd5b505050506040513d601f19601f820116820180604052508101906121899190613196565b90506121ac610bcf603354610570600254600a0a85611db590919063ffffffff16565b60395550504360385550505050505050565b6001600160a01b0383166121e45760405162461bcd60e51b815260040161073a90613308565b6001600160a01b03821661220a5760405162461bcd60e51b815260040161073a90613546565b61224781604051806060016040528060268152602001613940602691396001600160a01b0386166000908152602e602052604090205491906122c8565b6001600160a01b038085166000908152602e602052604080822093909355908416815220546122769082611ed2565b6001600160a01b038084166000818152602e602052604090819020939093559151908516907fddf252ad1be2c89b69c2b068fc378daa952ba7f163c4a11628f55a4df523b3ef90611fd3908590613293565b600081848411156123575760405162461bcd60e51b81526004018080602001828103825283818151815260200191508051906020019080838360005b8381101561231c578181015183820152602001612304565b50505050905090810190601f1680156123495780820380516001836020036101000a031916815260200191505b509250505060405180910390fd5b505050900390565b6001600160a01b0382166000908152603a60205260409020600581015460ff166123d557818160010154106123a757600181015461239d9083611e75565b60018201556123d0565b60018101546123b7908390611e75565b60018083019190915560058201805460ff191690911790555b6123ea565b60018101546123e49083611ed2565b60018201555b505050565b6001600160a01b0382166000908152603a602052604090206005810154610100900460ff16612467578181600301541061243c5760038101546124329083611e75565b60038201556123d0565b600381015461244c908390611e75565b600382015560058101805461ff0019166101001790556123ea565b60038101546124769083611ed2565b6003820155505050565b6000805b600a8110156124f057338482600a811061249a57fe5b60020201546001600160a01b031614156124b6578091506124f0565b8382600a81106124c257fe5b60020201600101548482600a81106124d657fe5b600202016001015410156124e8578091505b600101612484565b508281600a81106124fd57fe5b600202016001015482118061252a57508281600a811061251957fe5b60020201546001600160a01b031633145b156125855760408051808201909152338152602081018390528382600a811061254f57fe5b82516002919091029190910180546001600160a01b0319166001600160a01b039092169190911781556020909101516001909101555b816123ea5760408051808201909152600080825260208201528382600a81106125aa57fe5b82516002919091029190910180546001600160a01b0319166001600160a01b03909216919091178155602090910151600190910155505050565b6001600160a01b03821661260a5760405162461bcd60e51b815260040161073a90613589565b6126478160405180606001604052806022815260200161398b602291396001600160a01b0385166000908152602e602052604090205491906122c8565b6001600160a01b0383166000908152602e602052604090205560015461266d9082611e75565b6001556040516000906001600160a01b038416907fddf252ad1be2c89b69c2b068fc378daa952ba7f163c4a11628f55a4df523b3ef906126ae908590613293565b60405180910390a35050565b604080516001600160a01b038416602482015260448082018490528251808303909101815260649091019091526020810180516001600160e01b031663a9059cbb60e01b1790526123ea908490612a32565b3390565b60008281526020819052604090206127289082611da0565b15610dda5761273561270c565b6001600160a01b0316816001600160a01b0316837f2f8788117e7eff1d82e926ec794901d17c78024a50270940304540a733656f0d60405160405180910390a45050565b60008281526020819052604090206127919082612ae3565b15610dda5761279e61270c565b6001600160a01b0316816001600160a01b0316837ff6391f5c32d9c69d2a47ea670b442974b53935d1edc7fd64eb21e047a839171b60405160405180910390a45050565b604080516001600160a01b0380861660248301528416604482015260648082018490528251808303909101815260849091019091526020810180516001600160e01b03166323b872dd60e01b17905261283c908590612a32565b50505050565b60006107af8383612af8565b60006107af836001600160a01b038416612b5c565b6001600160a01b0382166000908152603a60205260409020600581015460ff16156123d55781816001015411156128a357600181015461239d9083611e75565b60018101546128b3908390611e75565b600182015560058101805460ff191690556123ea565b6001600160a01b0382166000908152603a602052604090206005810154610100900460ff161561246757818160030154111561290e5760038101546124329083611e75565b600381015461291e908390611e75565b600382015560058101805461ff00191690556123ea565b6001600160a01b03821661295b5760405162461bcd60e51b815260040161073a906134d8565b6001546129689082611ed2565b6001556001600160a01b0382166000908152602e602052604090205461298e9082611ed2565b6001600160a01b0383166000818152602e60205260408082209390935591519091907fddf252ad1be2c89b69c2b068fc378daa952ba7f163c4a11628f55a4df523b3ef906126ae908590613293565b600061067082612b74565b60006129f48383612b5c565b612a2a57508154600181810184556000848152602080822090930184905584548482528286019093526040902091909155610670565b506000610670565b6000612a87826040518060400160405280602081526020017f5361666545524332303a206c6f772d6c6576656c2063616c6c206661696c6564815250856001600160a01b0316612b789092919063ffffffff16565b8051909150156123ea57808060200190516020811015612aa657600080fd5b50516123ea5760405162461bcd60e51b815260040180806020018281038252602a8152602001806139ad602a913960400191505060405180910390fd5b60006107af836001600160a01b038416612b8f565b81546000908210612b3a5760405162461bcd60e51b81526004018080602001828103825260228152602001806138306022913960400191505060405180910390fd5b826000018281548110612b4957fe5b9060005260206000200154905092915050565b60009081526001919091016020526040902054151590565b5490565b6060612b878484600085612c55565b949350505050565b60008181526001830160205260408120548015612c4b5783546000198083019190810190600090879083908110612bc257fe5b9060005260206000200154905080876000018481548110612bdf57fe5b600091825260208083209091019290925582815260018981019092526040902090840190558654879080612c0f57fe5b60019003818190600052602060002001600090559055866001016000878152602001908152602001600020600090556001945050505050610670565b6000915050610670565b606082471015612c965760405162461bcd60e51b81526004018080602001828103825260268152602001806138a96026913960400191505060405180910390fd5b612c9f85612db0565b612cf0576040805162461bcd60e51b815260206004820152601d60248201527f416464726573733a2063616c6c20746f206e6f6e2d636f6e7472616374000000604482015290519081900360640190fd5b600080866001600160a01b031685876040518082805190602001908083835b60208310612d2e5780518252601f199092019160209182019101612d0f565b6001836020036101000a03801982511681845116808217855250505050505090500191505060006040518083038185875af1925050503d8060008114612d90576040519150601f19603f3d011682016040523d82523d6000602084013e612d95565b606091505b5091509150612da5828286612db6565b979650505050505050565b3b151590565b60608315612dc55750816107af565b825115612dd55782518084602001fd5b60405162461bcd60e51b815260206004820181815284516024840152845185939192839260440191908501908083836000831561231c578181015183820152602001612304565b604051806101400160405280600a905b612e34612f1b565b815260200190600190039081612e2c5790505090565b604051806101c0016040528060008152602001600081526020016000815260200160008152602001600081526020016000815260200160008152602001600081526020016000815260200160006001600160a01b0316815260200160006001600160a01b0316815260200160001515815260200160608152602001606081525090565b60405180610120016040528060008152602001600081526020016000815260200160008152602001600081526020016000815260200160008152602001600081526020016000151581525090565b604080518082019091526000808252602082015290565b80356001600160a01b03811681146105c457600080fd5b600060208284031215612f5a578081fd5b6107af82612f32565b60008060408385031215612f75578081fd5b612f7e83612f32565b9150612f8c60208401612f32565b90509250929050565b600080600060608486031215612fa9578081fd5b612fb284612f32565b9250612fc060208501612f32565b9150604084013590509250925092565b60008060408385031215612fe2578182fd5b612feb83612f32565b946020939093013593505050565b600080600080600060808688031215613010578081fd5b61301986612f32565b94506020860135935060408601359250606086013567ffffffffffffffff80821115613043578283fd5b818801915088601f830112613056578283fd5b813581811115613064578384fd5b896020828501011115613075578384fd5b9699959850939650602001949392505050565b600060208284031215613099578081fd5b81516107af81613821565b6000602082840312156130b5578081fd5b5035919050565b600080604083850312156130ce578182fd5b82359150612f8c60208401612f32565b600080604083850312156130f0578182fd5b50508035926020909101359150565b600060208284031215613110578081fd5b815167ffffffffffffffff80821115613127578283fd5b818401915084601f83011261313a578283fd5b81518181111561314657fe5b604051601f8201601f19168101602001838111828210171561316457fe5b60405281815283820160200187101561317b578485fd5b61318c8260208301602087016137f5565b9695505050505050565b6000602082840312156131a7578081fd5b5051919050565b600080600080608085870312156131c3578384fd5b84359350602085013592506040850135915060608501356131e381613821565b939692955090935050565b15159052565b6001600160a01b03169052565b600081518084526132198160208601602086016137f5565b601f01601f19169290920160200192915050565b6001600160a01b0391909116815260200190565b6102808101818360005b600a81101561327f57815180516001600160a01b03168452602090810151818501526040909301929091019060010161324b565b50505092915050565b901515815260200190565b90815260200190565b6001600160a01b03878116825260208201879052604082018690528416606082015260a06080820181905281018290526000828460c084013781830160c090810191909152601f909201601f1916010195945050505050565b6000602082526107af6020830184613201565b60208082526025908201527f42455032303a207472616e736665722066726f6d20746865207a65726f206164604082015264647265737360d81b606082015260800190565b602080825260139082015272141bdbdb0e88141bdbdb08191a5cd8589b1959606a1b604082015260600190565b60208082526024908201527f42455032303a20617070726f76652066726f6d20746865207a65726f206164646040820152637265737360e01b606082015260800190565b6020808252602c908201527f506f6f6c3a20546869732066756e6374696f6e206d7573742063616c6c65642060408201526b66726f6d20666163746f727960a01b606082015260800190565b6020808252601b908201527f506f6f6c3a2043616c6c6572206973206e6f7420612061646d696e0000000000604082015260600190565b6020808252601e908201527f506f6f6c3a2043616c6c6572206973206e6f74206120626f72726f7765720000604082015260600190565b6020808252601e908201527f506f6f6c3a2050726f66697420616d6f756e7420697320696e76616c69640000604082015260600190565b6020808252600f908201526e2837b7b61d102327a92124a22222a760891b604082015260600190565b6020808252601f908201527f42455032303a206d696e7420746f20746865207a65726f206164647265737300604082015260600190565b60208082526017908201527f506f6f6c3a20416d6f756e7420697320696e76616c6964000000000000000000604082015260600190565b60208082526023908201527f42455032303a207472616e7366657220746f20746865207a65726f206164647260408201526265737360e81b606082015260800190565b60208082526021908201527f42455032303a206275726e2066726f6d20746865207a65726f206164647265736040820152607360f81b606082015260800190565b60208082526022908201527f42455032303a20617070726f766520746f20746865207a65726f206164647265604082015261737360f01b606082015260800190565b602080825260169082015275141bdbdb0e881c99595b9d1c985b98de4819dd585c9960521b604082015260600190565b60006020825282516020830152602083015160408301526040830151606083015260608301516080830152608083015160a083015260a083015160c083015260c083015160e083015260e08301516101008181850152808501519150506101208181850152808501519150506101406136b7818501836131f4565b84015190506101606136cb848201836131f4565b84015190506101806136df848201836131ee565b808501519150506101c06101a081818601526136ff6101e0860184613201565b90860151858203601f19018387015290925061318c8382613201565b600061012082019050825182526020830151602083015260408301516040830152606083015160608301526080830151608083015260a083015160a083015260c083015160c083015260e083015160e0830152610100808401511515818401525092915050565b918252602082015260400190565b9283526020830191909152604082015260600190565b93845260208401929092526040830152606082015260800190565b9687526020870195909552604086019390935260608501919091526080840152151560a0830152151560c082015260e00190565b60005b838110156138105781810151838201526020016137f8565b8381111561283c5750506000910152565b801515811461167757600080fdfe456e756d657261626c655365743a20696e646578206f7574206f6620626f756e6473416363657373436f6e74726f6c3a2073656e646572206d75737420626520616e2061646d696e20746f206772616e7442455032303a207472616e7366657220616d6f756e74206578636565647320616c6c6f77616e6365416464726573733a20696e73756666696369656e742062616c616e636520666f722063616c6cb12eea135aff515aa62f479681c01182e62adddb61bc1bb98bd6fba7a260d4b1416363657373436f6e74726f6c3a2073656e646572206d75737420626520616e2061646d696e20746f207265766f6b65536166654d6174683a206d756c7469706c69636174696f6e206f766572666c6f7742455032303a207472616e7366657220616d6f756e7420657863656564732062616c616e636542455032303a2064656372656173656420616c6c6f77616e63652062656c6f77207a65726f42455032303a206275726e20616d6f756e7420657863656564732062616c616e63655361666545524332303a204552433230206f7065726174696f6e20646964206e6f742073756363656564416363657373436f6e74726f6c3a2063616e206f6e6c792072656e6f756e636520726f6c657320666f722073656c66a2646970667358221220d951398b2570d01818c513513ac30dba711bdb3f0c5d4f6a843e6c9b173b51a864736f6c63430007060033a49807205ce4d355092ef5a8a18f56e8913cf4a201fbe287825b095693c21775",
  "linkReferences": {},
  "deployedLinkReferences": {}
}